{
  "_format": "hh-sol-artifact-1",
  "contractName": "CampusGov",
  "sourceName": "contracts/CampusGov.sol",
  "abi": [
    {
      "inputs": [
        {
          "internalType": "address",
          "name": "_tokenAddress",
          "type": "address"
        }
      ],
      "stateMutability": "nonpayable",
      "type": "constructor"
    },
    {
      "anonymous": false,
      "inputs": [
        {
          "indexed": true,
          "internalType": "uint256",
          "name": "proposalId",
          "type": "uint256"
        },
        {
          "indexed": false,
          "internalType": "uint256",
          "name": "yesVotes",
          "type": "uint256"
        },
        {
          "indexed": false,
          "internalType": "uint256",
          "name": "noVotes",
          "type": "uint256"
        }
      ],
      "name": "ProposalClosed",
      "type": "event"
    },
    {
      "anonymous": false,
      "inputs": [
        {
          "indexed": true,
          "internalType": "uint256",
          "name": "proposalId",
          "type": "uint256"
        },
        {
          "indexed": false,
          "internalType": "string",
          "name": "description",
          "type": "string"
        },
        {
          "indexed": false,
          "internalType": "uint256",
          "name": "startTime",
          "type": "uint256"
        },
        {
          "indexed": false,
          "internalType": "uint256",
          "name": "endTime",
          "type": "uint256"
        },
        {
          "indexed": true,
          "internalType": "address",
          "name": "creator",
          "type": "address"
        }
      ],
      "name": "ProposalCreated",
      "type": "event"
    },
    {
      "anonymous": false,
      "inputs": [
        {
          "indexed": true,
          "internalType": "uint256",
          "name": "proposalId",
          "type": "uint256"
        },
        {
          "indexed": true,
          "internalType": "address",
          "name": "voter",
          "type": "address"
        },
        {
          "indexed": false,
          "internalType": "bool",
          "name": "support",
          "type": "bool"
        }
      ],
      "name": "Voted",
      "type": "event"
    },
    {
      "inputs": [],
      "name": "cgovToken",
      "outputs": [
        {
          "internalType": "contract IERC20",
          "name": "",
          "type": "address"
        }
      ],
      "stateMutability": "view",
      "type": "function"
    },
    {
      "inputs": [
        {
          "internalType": "uint256",
          "name": "_proposalId",
          "type": "uint256"
        }
      ],
      "name": "closeProposal",
      "outputs": [],
      "stateMutability": "nonpayable",
      "type": "function"
    },
    {
      "inputs": [
        {
          "internalType": "string",
          "name": "_description",
          "type": "string"
        },
        {
          "internalType": "uint256",
          "name": "_durationInMinutes",
          "type": "uint256"
        }
      ],
      "name": "createProposal",
      "outputs": [],
      "stateMutability": "nonpayable",
      "type": "function"
    },
    {
      "inputs": [
        {
          "internalType": "uint256",
          "name": "_proposalId",
          "type": "uint256"
        }
      ],
      "name": "getProposal",
      "outputs": [
        {
          "internalType": "uint256",
          "name": "id",
          "type": "uint256"
        },
        {
          "internalType": "string",
          "name": "description",
          "type": "string"
        },
        {
          "internalType": "uint256",
          "name": "startTime",
          "type": "uint256"
        },
        {
          "internalType": "uint256",
          "name": "endTime",
          "type": "uint256"
        },
        {
          "internalType": "uint256",
          "name": "yesVotes",
          "type": "uint256"
        },
        {
          "internalType": "uint256",
          "name": "noVotes",
          "type": "uint256"
        },
        {
          "internalType": "bool",
          "name": "isClosed",
          "type": "bool"
        },
        {
          "internalType": "address",
          "name": "creator",
          "type": "address"
        }
      ],
      "stateMutability": "view",
      "type": "function"
    },
    {
      "inputs": [
        {
          "internalType": "uint256",
          "name": "",
          "type": "uint256"
        },
        {
          "internalType": "address",
          "name": "",
          "type": "address"
        }
      ],
      "name": "hasVoted",
      "outputs": [
        {
          "internalType": "bool",
          "name": "",
          "type": "bool"
        }
      ],
      "stateMutability": "view",
      "type": "function"
    },
    {
      "inputs": [],
      "name": "owner",
      "outputs": [
        {
          "internalType": "address",
          "name": "",
          "type": "address"
        }
      ],
      "stateMutability": "view",
      "type": "function"
    },
    {
      "inputs": [],
      "name": "proposalCount",
      "outputs": [
        {
          "internalType": "uint256",
          "name": "",
          "type": "uint256"
        }
      ],
      "stateMutability": "view",
      "type": "function"
    },
    {
      "inputs": [],
      "name": "proposalThreshold",
      "outputs": [
        {
          "internalType": "uint256",
          "name": "",
          "type": "uint256"
        }
      ],
      "stateMutability": "view",
      "type": "function"
    },
    {
      "inputs": [
        {
          "internalType": "uint256",
          "name": "_proposalId",
          "type": "uint256"
        },
        {
          "internalType": "bool",
          "name": "_support",
          "type": "bool"
        }
      ],
      "name": "vote",
      "outputs": [],
      "stateMutability": "nonpayable",
      "type": "function"
    }
  ],
  "bytecode": "0x608060405268056bc75e2d631000006003553480156200001e57600080fd5b5060405162001a3c38038062001a3c833981810160405281019062000044919062000136565b336000806101000a81548173ffffffffffffffffffffffffffffffffffffffff021916908373ffffffffffffffffffffffffffffffffffffffff16021790555080600260006101000a81548173ffffffffffffffffffffffffffffffffffffffff021916908373ffffffffffffffffffffffffffffffffffffffff1602179055505062000168565b600080fd5b600073ffffffffffffffffffffffffffffffffffffffff82169050919050565b6000620000fe82620000d1565b9050919050565b6200011081620000f1565b81146200011c57600080fd5b50565b600081519050620001308162000105565b92915050565b6000602082840312156200014f576200014e620000cc565b5b60006200015f848285016200011f565b91505092915050565b6118c480620001786000396000f3fe608060405234801561001057600080fd5b50600436106100935760003560e01c8063b58131b011610066578063b58131b01461011e578063c7f758a81461013c578063c9d27afe14610173578063da35c6641461018f578063da42979f146101ad57610093565b80630386a0161461009857806335facf78146100b457806343859632146100d05780638da5cb5b14610100575b600080fd5b6100b260048036038101906100ad9190610bbd565b6101cb565b005b6100ce60048036038101906100c99190610d30565b610330565b005b6100ea60048036038101906100e59190610dea565b610654565b6040516100f79190610e45565b60405180910390f35b610108610683565b6040516101159190610e6f565b60405180910390f35b6101266106a7565b6040516101339190610e99565b60405180910390f35b61015660048036038101906101519190610bbd565b6106ad565b60405161016a989796959493929190610f33565b60405180910390f35b61018d60048036038101906101889190610fe4565b6108a9565b005b610197610b47565b6040516101a49190610e99565b60405180910390f35b6101b5610b4d565b6040516101c29190611083565b60405180910390f35b806000811180156101de57506001548111155b61021d576040517f08c379a0000000000000000000000000000000000000000000000000000000008152600401610214906110ea565b60405180910390fd5b60006004600084815260200190815260200160002090508060060160009054906101000a900460ff1615610286576040517f08c379a000000000000000000000000000000000000000000000000000000000815260040161027d90611156565b60405180910390fd5b806003015442116102cc576040517f08c379a00000000000000000000000000000000000000000000000000000000081526004016102c3906111c2565b60405180910390fd5b60018160060160006101000a81548160ff021916908315150217905550827f6b1162a452d1e4fab57ed38e4e6b4d193be471c84812a557d64126574ef153f7826004015483600501546040516103239291906111e2565b60405180910390a2505050565b600354600260009054906101000a900473ffffffffffffffffffffffffffffffffffffffff1673ffffffffffffffffffffffffffffffffffffffff166370a08231336040518263ffffffff1660e01b815260040161038e9190610e6f565b602060405180830381865afa1580156103ab573d6000803e3d6000fd5b505050506040513d601f19601f820116820180604052508101906103cf9190611220565b1015610410576040517f08c379a000000000000000000000000000000000000000000000000000000000815260040161040790611299565b60405180910390fd5b6000825111610454576040517f08c379a000000000000000000000000000000000000000000000000000000000815260040161044b90611305565b60405180910390fd5b60008111610497576040517f08c379a000000000000000000000000000000000000000000000000000000000815260040161048e90611397565b60405180910390fd5b600160008154809291906104aa906113e6565b91905055506040518061010001604052806001548152602001838152602001428152602001603c836104dc919061142e565b426104e79190611470565b815260200160008152602001600081526020016000151581526020013373ffffffffffffffffffffffffffffffffffffffff1681525060046000600154815260200190815260200160002060008201518160000155602082015181600101908161055191906116a6565b5060408201518160020155606082015181600301556080820151816004015560a0820151816005015560c08201518160060160006101000a81548160ff02191690831515021790555060e08201518160060160016101000a81548173ffffffffffffffffffffffffffffffffffffffff021916908373ffffffffffffffffffffffffffffffffffffffff1602179055509050503373ffffffffffffffffffffffffffffffffffffffff166001547fd63c6c0d65bc9c330e5e7f95cfa61fab0cd028e021a82552b6343a833460feea8442603c8661062e919061142e565b426106399190611470565b60405161064893929190611778565b60405180910390a35050565b60056020528160005260406000206020528060005260406000206000915091509054906101000a900460ff1681565b60008054906101000a900473ffffffffffffffffffffffffffffffffffffffff1681565b60035481565b60006060600080600080600080886000811180156106cd57506001548111155b61070c576040517f08c379a0000000000000000000000000000000000000000000000000000000008152600401610703906110ea565b60405180910390fd5b6000600460008c81526020019081526020016000206040518061010001604052908160008201548152602001600182018054610747906114d3565b80601f0160208091040260200160405190810160405280929190818152602001828054610773906114d3565b80156107c05780601f10610795576101008083540402835291602001916107c0565b820191906000526020600020905b8154815290600101906020018083116107a357829003601f168201915b50505050508152602001600282015481526020016003820154815260200160048201548152602001600582015481526020016006820160009054906101000a900460ff161515151581526020016006820160019054906101000a900473ffffffffffffffffffffffffffffffffffffffff1673ffffffffffffffffffffffffffffffffffffffff1673ffffffffffffffffffffffffffffffffffffffff16815250509050806000015181602001518260400151836060015184608001518560a001518660c001518760e00151995099509950995099509950995099505050919395975091939597565b816000811180156108bc57506001548111155b6108fb576040517f08c379a00000000000000000000000000000000000000000000000000000000081526004016108f2906110ea565b60405180910390fd5b60006004600085815260200190815260200160002090508060060160009054906101000a900460ff1615610964576040517f08c379a000000000000000000000000000000000000000000000000000000000815260040161095b90611156565b60405180910390fd5b80600301544211156109ab576040517f08c379a00000000000000000000000000000000000000000000000000000000081526004016109a290611802565b60405180910390fd5b6005600085815260200190815260200160002060003373ffffffffffffffffffffffffffffffffffffffff1673ffffffffffffffffffffffffffffffffffffffff16815260200190815260200160002060009054906101000a900460ff1615610a49576040517f08c379a0000000000000000000000000000000000000000000000000000000008152600401610a409061186e565b60405180910390fd5b60016005600086815260200190815260200160002060003373ffffffffffffffffffffffffffffffffffffffff1673ffffffffffffffffffffffffffffffffffffffff16815260200190815260200160002060006101000a81548160ff0219169083151502179055508215610ad757806004016000815480929190610acd906113e6565b9190505550610af2565b806005016000815480929190610aec906113e6565b91905055505b3373ffffffffffffffffffffffffffffffffffffffff16847ff2913dbe661ee2acc4a046d8fbcdc792373bda34c41c6086484b5345e5785e5f85604051610b399190610e45565b60405180910390a350505050565b60015481565b600260009054906101000a900473ffffffffffffffffffffffffffffffffffffffff1681565b6000604051905090565b600080fd5b600080fd5b6000819050919050565b610b9a81610b87565b8114610ba557600080fd5b50565b600081359050610bb781610b91565b92915050565b600060208284031215610bd357610bd2610b7d565b5b6000610be184828501610ba8565b91505092915050565b600080fd5b600080fd5b6000601f19601f8301169050919050565b7f4e487b7100000000000000000000000000000000000000000000000000000000600052604160045260246000fd5b610c3d82610bf4565b810181811067ffffffffffffffff82111715610c5c57610c5b610c05565b5b80604052505050565b6000610c6f610b73565b9050610c7b8282610c34565b919050565b600067ffffffffffffffff821115610c9b57610c9a610c05565b5b610ca482610bf4565b9050602081019050919050565b82818337600083830152505050565b6000610cd3610cce84610c80565b610c65565b905082815260208101848484011115610cef57610cee610bef565b5b610cfa848285610cb1565b509392505050565b600082601f830112610d1757610d16610bea565b5b8135610d27848260208601610cc0565b91505092915050565b60008060408385031215610d4757610d46610b7d565b5b600083013567ffffffffffffffff811115610d6557610d64610b82565b5b610d7185828601610d02565b9250506020610d8285828601610ba8565b9150509250929050565b600073ffffffffffffffffffffffffffffffffffffffff82169050919050565b6000610db782610d8c565b9050919050565b610dc781610dac565b8114610dd257600080fd5b50565b600081359050610de481610dbe565b92915050565b60008060408385031215610e0157610e00610b7d565b5b6000610e0f85828601610ba8565b9250506020610e2085828601610dd5565b9150509250929050565b60008115159050919050565b610e3f81610e2a565b82525050565b6000602082019050610e5a6000830184610e36565b92915050565b610e6981610dac565b82525050565b6000602082019050610e846000830184610e60565b92915050565b610e9381610b87565b82525050565b6000602082019050610eae6000830184610e8a565b92915050565b600081519050919050565b600082825260208201905092915050565b60005b83811015610eee578082015181840152602081019050610ed3565b60008484015250505050565b6000610f0582610eb4565b610f0f8185610ebf565b9350610f1f818560208601610ed0565b610f2881610bf4565b840191505092915050565b600061010082019050610f49600083018b610e8a565b8181036020830152610f5b818a610efa565b9050610f6a6040830189610e8a565b610f776060830188610e8a565b610f846080830187610e8a565b610f9160a0830186610e8a565b610f9e60c0830185610e36565b610fab60e0830184610e60565b9998505050505050505050565b610fc181610e2a565b8114610fcc57600080fd5b50565b600081359050610fde81610fb8565b92915050565b60008060408385031215610ffb57610ffa610b7d565b5b600061100985828601610ba8565b925050602061101a85828601610fcf565b9150509250929050565b6000819050919050565b600061104961104461103f84610d8c565b611024565b610d8c565b9050919050565b600061105b8261102e565b9050919050565b600061106d82611050565b9050919050565b61107d81611062565b82525050565b60006020820190506110986000830184611074565b92915050565b7f50726f706f73616c20646f6573206e6f74206578697374000000000000000000600082015250565b60006110d4601783610ebf565b91506110df8261109e565b602082019050919050565b60006020820190508181036000830152611103816110c7565b9050919050565b7f50726f706f73616c20697320616c726561647920636c6f736564000000000000600082015250565b6000611140601a83610ebf565b915061114b8261110a565b602082019050919050565b6000602082019050818103600083015261116f81611133565b9050919050565b7f566f74696e6720706572696f6420686173206e6f7420656e6465642079657400600082015250565b60006111ac601f83610ebf565b91506111b782611176565b602082019050919050565b600060208201905081810360008301526111db8161119f565b9050919050565b60006040820190506111f76000830185610e8a565b6112046020830184610e8a565b9392505050565b60008151905061121a81610b91565b92915050565b60006020828403121561123657611235610b7d565b5b60006112448482850161120b565b91505092915050565b7f496e73756666696369656e742043474f5620746f2070726f706f736500000000600082015250565b6000611283601c83610ebf565b915061128e8261124d565b602082019050919050565b600060208201905081810360008301526112b281611276565b9050919050565b7f4465736372697074696f6e2063616e6e6f7420626520656d7074790000000000600082015250565b60006112ef601b83610ebf565b91506112fa826112b9565b602082019050919050565b6000602082019050818103600083015261131e816112e2565b9050919050565b7f4475726174696f6e206d7573742062652067726561746572207468616e207a6560008201527f726f000000000000000000000000000000000000000000000000000000000000602082015250565b6000611381602283610ebf565b915061138c82611325565b604082019050919050565b600060208201905081810360008301526113b081611374565b9050919050565b7f4e487b7100000000000000000000000000000000000000000000000000000000600052601160045260246000fd5b60006113f182610b87565b91507fffffffffffffffffffffffffffffffffffffffffffffffffffffffffffffffff8203611423576114226113b7565b5b600182019050919050565b600061143982610b87565b915061144483610b87565b925082820261145281610b87565b91508282048414831517611469576114686113b7565b5b5092915050565b600061147b82610b87565b915061148683610b87565b925082820190508082111561149e5761149d6113b7565b5b92915050565b7f4e487b7100000000000000000000000000000000000000000000000000000000600052602260045260246000fd5b600060028204905060018216806114eb57607f821691505b6020821081036114fe576114fd6114a4565b5b50919050565b60008190508160005260206000209050919050565b60006020601f8301049050919050565b600082821b905092915050565b6000600883026115667fffffffffffffffffffffffffffffffffffffffffffffffffffffffffffffffff82611529565b6115708683611529565b95508019841693508086168417925050509392505050565b60006115a361159e61159984610b87565b611024565b610b87565b9050919050565b6000819050919050565b6115bd83611588565b6115d16115c9826115aa565b848454611536565b825550505050565b600090565b6115e66115d9565b6115f18184846115b4565b505050565b5b818110156116155761160a6000826115de565b6001810190506115f7565b5050565b601f82111561165a5761162b81611504565b61163484611519565b81016020851015611643578190505b61165761164f85611519565b8301826115f6565b50505b505050565b600082821c905092915050565b600061167d6000198460080261165f565b1980831691505092915050565b6000611696838361166c565b9150826002028217905092915050565b6116af82610eb4565b67ffffffffffffffff8111156116c8576116c7610c05565b5b6116d282546114d3565b6116dd828285611619565b600060209050601f83116001811461171057600084156116fe578287015190505b611708858261168a565b865550611770565b601f19841661171e86611504565b60005b8281101561174657848901518255600182019150602085019450602081019050611721565b86831015611763578489015161175f601f89168261166c565b8355505b6001600288020188555050505b505050505050565b600060608201905081810360008301526117928186610efa565b90506117a16020830185610e8a565b6117ae6040830184610e8a565b949350505050565b7f566f74696e6720706572696f642068617320656e646564000000000000000000600082015250565b60006117ec601783610ebf565b91506117f7826117b6565b602082019050919050565b6000602082019050818103600083015261181b816117df565b9050919050565b7f596f75206861766520616c726561647920766f74656400000000000000000000600082015250565b6000611858601683610ebf565b915061186382611822565b602082019050919050565b600060208201905081810360008301526118878161184b565b905091905056fea2646970667358221220bb26795fec4519d157c373264a2bc983c789d67e36dbe772c7617683ad43439d64736f6c63430008180033",
  "linkReferences": {},
  "deployedLinkReferences": {}
}